:100000000C9465140C94AD140C94AD140C94AD14B4
:100010000C94AD140C94AD140C94AD140C94AD145C
:100020000C94AD140C94AD140C94E42C0C94AD14FD
:100030000C941E310C94AD140C94AD140C94AD14AE
:100040000C94AD140C9474320C94AD140C94AD1447
:100050000C94AD140C94AD140C94AD140C94AD141C
:100060000C94AD140C94AD140C94AD140C94AD140C
:100070000C94AD140C94AD140C94AD140C94AD14FC
:100080000C94AD140C94AD140C94AD140C94AD14EC
:100090000C94AD140C94AD140C94AD140C94AD14DC
:1000A0000C94AD140C94AD140C94AD14AC203B1C0A
:1000B000431C5E1C661C111E191E2C1D341D461E81
:1000C0006C1E881EA31EBB1E151F561F5F207D20A1
:1000D000731F8E1FB01FD81FF31F0E203120D82D85
:1000E000F82DE32EF82DE32E3A2E5D2EE32EB22EC0
:1000F000C52E00000000000000000000000000000D
:1001000000002A002B00280000000000280000004A
:1001100000000000000000000000000000000000DF
:1001200000000000000000002900000000000000A6
:1001300000002C001E0234022002210222022402AE
:1001400034002602270225022E0236002D00370039
:10015000380027001E001F0020002100220023007D
:100160002400250026003302330036022E00370219
:1001700038021F02040205020602070208020902F1
:100180000A020B020C020D020E020F0210021102F3
:1001900012021302140215021602170218021902A3
:1001A0001A021B021C021D022F0031003000230224
:1001B0002D023500040005000600070008000900B4
:1001C0000A000B000C000D000E000F0010001100C3
:1001D0001200130014001500160017001800190073
:1001E0001A001B001C001D002F02310230023502D4
:1001F0004C000000000000000000000000000000B3
:1002000000000000000000000000000000000000EE
:1002100000000000000000000000000000000000DE
:100220000000000000E100000000000000000000ED
:1002300000000000000000000000000000000000BE
:1002400000000000000000000000000000000000AE
:10025000000000000000000000000000000000009E
:10026000000000000000000000000000000000008E
:10027000000000000000000000000000000000007E
:10028000000000000000000000000000000000006E
:10029000000000000000000000000000000000005E
:1002A000000000000000000000000000000000004E
:1002B000000000000000000000000000000000003E
:1002C000000000000000000000000000000000002E
:1002D000000000000000000000000000000000001E
:1002E000000000000000000000000000000000000E
:1002F00000000000000000000000000000000000FE
:1003000000000000000000000000000000000000ED
:1003100000000000000000000000000000000000DD
:1003200000000000000000000000000000000000CD
:1003300000000000000014000000000000000000A9
:1003400000000000000000000000000000000000AD
:10035000000000000000000000000000000000009D
:10036000000000000000000000000000000000008D
:10037000000000000000000000000000000000007D
:10065000000000000000000040000000000000005A
:10066000000000000000000000000000400000004A
:1006700000000000000000400010404000000000AA
:10068000000000000000000010101010000000002A
:10069000000030100000000000000000000000001A
:1006A000000000000000000000000000000000004A
:1006B000000000000000000000000000000000003A
:1006C000000000000000008000000000000000802A
:1006D00000000000000000005000000000000000CA
:1006E000000000000000000000000000000000000A
:1006F00000000000000000001010000000000000DA
:1007000000000000000000000000000000000000E9
:1007100000000000000000000000000000000000D9
:1007200000000000000000000000000000000000C9
:1007300000000200000000000000000000000000B7
:1007400000000000000000000000000000000000A9
:100750000000000100000000000100000000000097
:100760000000000000000000000000000000000089
:100770000000000000000000000000000000000079
:100780000000000000000100000000000000000068
:100790000000000000000000000000000000000059
:1007A00000000000000000000000000000000050F9
:1007B0000000000000000000000000000000000039
:1007C0000000000000000000000000000000000029
:1007D0000000000000000000000000000000000019
:1007E0000000000000000000000000000000000009
:1009E00000000000000000000000351E1F20212232
:1009F00023242526272D2E300000002B141A08153D
:100A000017F12C1C180C12132F000000E00416071D
:100A1000090AE6F20B0D0E0F3334000000E11D1B36
:100A20000619052C3100111036373800000000007F
:100A300000000000000000000000000000000000B6
:100A400000000000000000000000000000000000A6
:100A5000DF3A3B3C3D3E3F404142434445B100000C
:100A6000002B29F3286517F12C1C18D3D4B7B2003A
:100A70000000E02B2B0F090AE6F25051524F3328A9
:100A8000000000E11D1B0619052CB0004C2A2B2B81
:100A9000380000000000000000000000000000001E
:100AA0000000000000000000000000000000000046
:100AB000000000000000DE1E1F2021222324252626
:100AC000272D2E0F000000D6D0D1D215D5F12C1C29
:100AD000180C12464C000000E0041609070AE6F262
:100AE0004A4E4B4D3328000000E11D1B0619052C12
:100AF000310011104B4E38000000000000000000D3
:100B000000000000000000000000000000000000E5
:100B1000000000000000000000000000351E1F2043
:100B2000212223242526DDAFAE300000002B14F354
:100B3000081517F12C1C180C12132F000000E004EC
:100B40001607090AE6F2C7C9C8C6C1C2000000E11B
:100B50001D1B061905F4310011103637380000004E
:100B60000000000000000000000000000000000085
:100B70000000000000000000000000000000000075
:100B80000000F41E1F20212223242526272D2E308D
:100B90000000002B141A081517282C1C180C12130F
:100BA0002F000000E0041607090AE64C0B0D0E0F9B
:100BB0003334000000E11D1B0619052A3100111015
:100BC0003637380000000000000000000000000080
:100BD0000000000000000000000000000000000015
:100BE0000000000000000000000000000000000005
:100BF00000000000000000000000000000000000F5
:100C000000000000000000000000000000000000E4
:100DE0000000000000000E0026002B003A003D002D
:100DF00040004900FF07FF07FF0760004D0139026F
:100E0000230309000F000800170006000B0008006C
:100E1000150037001700150012001C001F020A0001
:100E2000100004000C000F00370006001200100034
:100E30000000290033021A002800000008001B00EF
:100E40000800060026023400340034001901340082
:100E50003400340027022800000005010F000000C4
:100E60000501120100002F0023023100170030009D
:100E70002E023100170000002C0006002B05280070
:100E800001144D0108001B00080006002602340072
:100E900034003400190134003400340027022800E3
:100EA0002B0528000000100213000F001C002C006E
:100EB00009021E002C002C0009021F002C002C002F
:100EC000090220002C002C00090221002C002C001B
:100ED000090222002C002C00090223002C002C0007
:100EE000090224002C002C00090225002C002C00F3
:100EF000090226002C0009021E0027002C0009020E
:100F00001E001E002C0009021E001F002C001902EA
:100F100012000F002E0228001702040005002C000A
:100F20000802160006002C000902110220002C0005
:100F30000802110017000800150004021300130036
:100F40002C002C0017022C002C002C00090211028E
:100F50002C00160213000400060008002C001C02DE
:100F60002C002C002C0018022C002C002C0010024D
:100F700021002C002C00100222002C0013020F0074
:100F800004001C00190212000F002D0028000602A8
:100F9000170015000F001702040005002C001702AF
:100FA000040005002C002C000F022C002C002C004B
:100FB00009022C002C002C000A022C002C00040238
:100FC0000F0017002C00090211021F002C002C003A
:100FD0000F0209002C002C00070211002C002C002D
:100FE000180213002C002C00150217002C002C00F6
:100FF000330033022C00080211001700080015000E
:10100000280016020B000C00090017002C001D021E
:101010002C002C002C001B022C002C002C000602A3
:101020002C002C002C0019022C002C002C00050296
:101030002C002C0016021300040006000800100209
:101040001800170008002C002C002C002C000702B0
:1010500008000F002C0005020E00160013001702F6
:10106000040005002C001702040005002C002C00D1
:10107000380038022C002800280028003600000024
:1010800010021500080006002C001E001E022C0095
:101090002C001F001F022C002C00200020022C001E
:1010A0002C00210021022C002C00220022022C0006
:1010B0002C00230023022C002C00240024022C00EE
:1010C0002C00250025022C002C00260026022C00D6
:1010D0002C00270027022C002C002D002D022C00B4
:1010E0002C002E002E022C002C000F022C002C00B5
:1010F00028002C00100224002C002C0010021E00DE
:101100002C002C0010021F002C002C0010022000CC
:101110002C002C0015022C002C002C0010022300A7
:101120002C002C00090211022C00160213000400EE
:10113000060008002C001C022C002C002C001802B9
:101140002C002C002C000C022C002C002C00120275
:101150002C002C00130217001602060007020800DC
:101160000F002C0028000602170015000F002C00AD
:1011700004022C002C002C0016022C002C002C0049
:1011800009022C002C002C0007022C002C002C0043
:101190000A022C002C0004020F0017002C00090288
:1011A00011021F002C000B02120010000800130295
:1011B0000A000702110013020A00180213000802B5
:1011C000110007002C002C00330033022C00080211
:1011D0001100170008001500280016020B000C0073
:1011E000090017002C001D022C002C002C001B02F3
:1011F0002C002C002C0006022C002C002C001902C4
:101200002C002C002C0005022C002C0016021300D0
:101210000400060008002C00310031022C002C00D4
:101220002C002C002C002C0011022C002C002C0077
:1012300010022C002C0013020A00180213001302E3
:101240000A00070211002C00380038022C00280088
:1012500028002800360000002C00350035022C0044
:101260002C001E001E022C002C001F001F022C0050
:101270002C00200020022C002C00210021022C0038
:101280002C00220022022C002C00230023022C0020
:101290002C00240024022C002C00250025022C0008
:1012A0002C00260026022C0010021E0021002C001B
:1012B00006021200110009000502120212021702B2
:1012C0002C00300030022C0028001702040005001A
:1012D0002C002C0014022C002C000902110220000A
:1012E0002C002C0008022C002C002C0015022C00D5
:1012F0002C002C0017022C002C002C0009021102DB
:101300002C00160213000400060008002C001C022A
:101310002C002C002C0018022C002C002C000C029D
:101320002C002C002C0012022C002C002C0013028C
:101330002C002C002C002F002F022C00280006026D
:10134000170015000F002C0004022C002C002C00AC
:1013500016022C002C002C0007022C002C002C0064
:1013600009022C002C002C000A022C002C00040284
:101370000F0017002C00090211021F002C001002A0
:101380000F0009002C001002070011002C001002B1
:10139000180013002C001002150017002C0010027A
:1013A00005021E002C00100205021F002C00280060
:1013B00016020B000C00090017002C001D022C0067
:1013C0002C002C001B022C002C002C0006022C00F0
:1013D0002C002C0019022C002C002C0005022C00E3
:1013E0002C000902110221002C002C0031003102D6
:1013F0002C002C002C002C002C002C0011022C00A6
:101400002C002C0010022C002C002C003600360280
:101410002C002C00370037022C002C00380038023A
:101420002C00280028002800360000002C00350081
:1014300035022C002C001E001E022C002C001F0068
:101440001F022C002C00200020022C002C00210068
:1014500021022C002C00220022022C002C00230050
:1014600023022C002C00240024022C002C00250038
:1014700025022C002C00260026022C002C00270020
:1014800027022C002C002D002D022C002C002E00F9
:101490002E022C002C00300030022C0028001702F5
:1014A000040005002C002C0014022C002C002C0041
:1014B0001A022C002C002C0008022C002C002C00FE
:1014C00015022C002C002C0017022C002C002C00E4
:1014D000090211022C001602130004000600080085
:1014E0002C001C022C002C002C0018022C002C00BC
:1014F0002C000C022C002C002C0012022C002C00C2
:101500002C0013022C002C002C002F002F022C008A
:1015100028000602170015000F002C0004022C0002
:101520002C002C0016022C002C002C0007022C0092
:101530002C002C0009022C002C002C000A022C008C
:101540002C0004020F0017002C00090211021F00DA
:101550002C002C000B022C002C002C000D022C0067
:101560002C002C000E022C002C002C000F022C0052
:101570002C002C00330033022C002C0034003402E9
:101580002C00280016020B000C00090017002C008C
:101590001D022C002C002C001B022C002C002C0007
:1015A00006022C002C002C0019022C002C002C0010
:1015B00005022C002C00160213000400060008008F
:1015C0002C00310031022C002C002C002C002C00AF
:1015D0002C0011022C002C002C0010022C002C00DE
:1015E0002C00360036022C002C00370037022C006D
:1015F0002C00380038022C00280028002800360073
:10160000100213000F001C002C0009021E002C0009
:101610002C0009021F002C002C00090220002C00C5
:101620002C00090221002C002C00090222002C00B1
:101630002C00090223002C002C00090224002C009D
:101640002C00090225002C002C00090226002C0089
:1016500009021E0027002C0009021E001E002C009B
:1016600009021E001F002C00190212000F002E029A
:1016700028001702040005002C00080216000600CE
:101680002C000902110220002C0008021100170092
:10169000080015000402130013002C002C00170290
:1016A0002C002C002C00090211022C001602130041
:1016B0000400060008002C001C022C002C002C004A
:1016C00018022C002C002C00100221002C002C00F1
:1016D000100222002C0013020F0004001C0019024B
:1016E00012000F002D0028000602170015000F0041
:1016F0001702040005002C001702040005002C004E
:101700002C000F022C002C002C0009022C002C00B5
:101710002C000A022C002C0004020F0017002C00E1
:10172000090211021F002C002C000F0209002C00DE
:101730002C00070211002C002C00180213002C00B2
:101740002C00150217002C002C00330033022C0053
:1017500008021100170008001500280016020B00EF
:101760000C00090017002C001D022C002C002C007E
:101770001B022C002C002C0006022C002C002C003C
:1017800019022C002C002C0005022C002C00160243
:1017900013000400060008001002180017000800DB
:1017A0002C002C002C002C00070208000F002C003D
:1017B00005020E00160013001702040005002C009D
:1017C0001702040005002C002C00380038022C0001
:1017D0002800280028003600100215000800060026
:1017E0002C001E001E022C002C001F001F022C00CB
:1017F0002C00200020022C002C00210021022C00B3
:101800002C00220022022C002C00230023022C009A
:101810002C00240024022C002C00250025022C0082
:101820002C00260026022C002C00270027022C006A
:101830002C002D002D022C002C002E002E022C003E
:101840002C000F022C002C0028002C001002240079
:101850002C002C0010021E002C002C0010021F0077
:101860002C002C00100220002C002C0015022C0053
:101870002C002C00100223002C002C000902110265
:101880002C00160213000400060008002C001C02A5
:101890002C002C002C0018022C002C002C000C0218
:1018A0002C002C002C0012022C002C00130217001C
:1018B00016020600070208000F002C00280006028E
:1018C000170015000F002C0004022C002C002C0027
:1018D00016022C002C002C0009022C002C002C00DD
:1018E00007022C002C002C000A022C002C00040201
:1018F0000F0017002C00090211021F002C000B0220
:1019000012001000080013020A000702110013025F
:101910000A00180213000802110007002C002C0016
:10192000330033022C0008021100170008001500D4
:10193000280016020B000C00090017002C001D02E5
:101940002C002C002C001B022C002C002C0006026A
:101950002C002C002C0019022C002C002C0005025D
:101960002C002C00160213000400060008002C00B6
:10197000310031022C002C002C002C002C002C00FB
:1019800011022C002C002C0010022C002C00130241
:101990000A001802130013020A00070211002C00AB
:1019A000380038022C0028002800280036002C00BF
:1019B000350035022C002C001E001E022C002C00CD
:1019C0001F001F022C002C00200020022C002C00E5
:1019D000210021022C002C00220022022C002C00CD
:1019E000230023022C002C00240024022C002C00B5
:1019F000250025022C002C00260026022C001002B7
:101A00001E0021002C000602120011000900050230
:101A10001202120217022C00300030022C002800A3
:101A20001702040005002C002C0014022C002C00CE
:101A30000902110220002C002C0008022C002C00AE
:101A40002C0015022C002C002C0017022C002C005E
:101A50002C00090211022C001602130004000600DB
:101A600008002C001C022C002C002C0018022C005A
:101A70002C002C000C022C002C002C0012022C003C
:101A80002C002C0013022C002C002C002F002F0205
:101A90002C0028000602170015000F002C0004027D
:101AA0002C002C002C0016022C002C002C0007020D
:101AB0002C002C002C0009022C002C002C000A0207
:101AC0002C002C0004020F0017002C000902110248
:101AD0001F002C0010020F0009002C00100207004C
:101AE00011002C001002180013002C001002150029
:101AF00017002C00100205021E002C001002050227
:101B00001F002C00280016020B000C000900170013
:101B10002C001D022C002C002C001B022C002C0081
:101B20002C0006022C002C002C0019022C002C008A
:101B30002C0005022C002C000902110221002C00AF
:101B40002C00310031022C002C002C002C002C0029
:101B50002C0011022C002C002C0010022C002C0058
:101B60002C00360036022C002C00370037022C00E7
:101B70002C00380038022C002800280028003600ED
:101B80000902110221002C002C001E001E022C0054
:101B90002C001F001F022C002C00200020022C0013
:101BA0002C00210021022C002C00220022022C00FB
:101BB0002C00230023022C002C00240024022C00E3
:101BC0002C00250025022C002C00260026022C00CB
:101BD0002C00270027022C002C002D002D022C00A9
:101BE0002C002E002E022C002C00300030022C0085
:101BF00028001702040005002C002C0014022C0001
:101C00002C002C001A022C002C002C0008022C00A6
:101C10002C002C0015022C002C002C0017022C008C
:101C20002C0008021100170008001500160213000E
:101C30000400060008002C001C022C002C002C00C4
:101C400018022C002C002C000C022C002C002C0064
:101C500012022C002C002C0013022C002C002C0053
:101C60002F002F022C0028000602170015000F007D
:101C70002C0004022C002C002C0016022C002C003E
:101C80002C0007022C002C002C0009022C002C0038
:101C90002C000A022C002C0004020F0017002C005C
:101CA000070208000F002C002C000B022C002C0057
:101CB0002C000D022C002C002C000E022C002C00FD
:101CC0002C000F022C002C002C00330033022C00BF
:101CD0002C00340034022C00280016020B000C00EB
:101CE000090017002C001D022C002C002C001B02E8
:101CF0002C002C002C0006022C002C002C001902B9
:101D00002C002C002C0005022C002C0005020E00DB
:101D1000160013002C00310031022C002C002C0086
:101D20002C002C002C0011022C002C002C00100286
:101D30002C002C002C00360036022C002C00370022
:101D400037022C002C00380038022C002800280014
:101D50002800360000000000000000000000000025
:101D60000000000000000000000000000000000073
:101D70000000000000000000000000000000000063
:101D80000000000000000000000000000000000053
:101D90000000000000000000000000000000000043
:101DA0000000000000000000000000000000000033
:101DB0000000000000000000000000000000000023
:101DC0000000000000000000000000000000000013
:101DD0000000000000000000000000000000000003
:101DE000000000000000FFFFFFFFFFFF00FFFF01FA
:101DF000FFFFFFFFFFFF02060002040001070106CC
:101E000002030202020102000401020700040005AD
:101E10000404040704060405020102020203000090
:101E200000010002000300010000000000000000AB
:101E300000000000000000000000000000000000A2
:101E40000000000000000000000000000000000092
:101E5000000000010101011400000000000000006A
:101E60000000000000000000000000000000000072
:101E70000000000000000000000000000000000062
:101E8000000101010114000000000000000000003A
:101E90000000000000000000000000000000000042
:101EA0000000000000000000000000000000000131
:101EB000010101140000000000000000000000000B
:101EC0000000000000000000000000000000000012
:101ED00000000000000000000000000000010101FF
:101EE0000114DD010001E5010101E9010201DB014D
:101EF0000301E1010401E8010501EA010601DE0137
:101F00000701D8010801E3010902DF010B02DC012E
:101F10000D01E2010E01E6010F02DA01110161413A
:101F20006242634364446545664667476848694959
:101F30006A4A6B4B6C4C6D4D6E4E6F4F70507151C9
:101F40007252735374547555765677577858795939
:101F50007A5A31213240332334243525365E3726F0
:101F6000382A392830290000000000000000202015
:101F70002D5F3D2B5B7B5D7D5C7C237E3B3A272286
:101F8000607E2C3C2E3E2F3F000000000000000031
:101F90000000000000000000000000000000000041
:101FA0000000000000000000000000000000000031
:101FB00000000000000000000000000000002F2FC3
:101FC0002A2A2D2D2B2B0000310032003300340043
:101FD0003500360037003800390030002E005C7CB8
:101FE00000000000000000000000000000000000F1
:101FF000000000000000000000000000000061621E
:10200000636465666768696A6B6C6D6E6F70717228
:10201000737475767778797A4142434445464748E8
:10202000494A4B4C4D4E4F505152535455565758A8
:10203000595A303132333435363738392122232456
:1020400025262728292A2B2C2D2E2F3A3B3C3D3E96
:102050003F405B5C5D5E5F607B7C7D7E0020034576
:1020600000610073007900410056005200200050CA
:1020700000680061006E0074006F006D00000004D5
:1020800003090409022200010100A0320904000032
:102090000103010100092111010001223F00070590
:1020A000810308000109025400030100A032090461
:1020B00000000103010100092111010001223F007C
:1020C0000705810308000109040100010301020062
:1020D000092111010001223A0007058203030005CE
:1020E000090402000103000000092111010001227E
:1020F0001B000705830302000809025400030100C6
:10210000A0320904000001030101000921110100AE
:1021100001223F00070581031200010904010001AB
:1021200003010200092111010001223A0007058282
:102130000303000509040200010300000009211146
:10214000010001221B0007058303020008120100A1
:102150000200000008EB03FF200100000100010560
:102160000C0901A101050C160100269C021A0100B0
:102170002A9C02751095018100C005010902A10188
:102180000901A1000509190129031500250195037D
:10219000750181029501750581010501093009313B
:1021A0001681FF267F003600004600009502750864
:1021B0008106C0C005010906A101050719E029E74C
:1021C00015002501750195088102950175088101A9
:1021D00005081901290595057501910295017503F9
:1021E00091011500250105071900297F95807501CA
:1021F0008102C005010906A101050719E029E715BB
:102200000025017501950881029501750881010578
:10221000081901290595057501910295017503912C
:1022200001150025FF0507190029FF95067508818E
:1022300000C04F7574206F662072616E67652E0A4C
:1022400000456E746572206E657720646566617501
:102250006C742064696D6D6572206C6576656C20A8
:1022600028312D3136293E2000456E746572206E6E
:1022700065772064656661756C74206261636B6C60
:102280006967687420656E61626C652028312D3144
:10229000293E20000A456E746572206E65772072B3
:1022A00065706561742074696D6520696E206D7359
:1022B0002028312D3939293E20000A456E74657277
:1022C000206E657720686F6C642074696D65206985
:1022D0006E206D732028312D393939293E20004573
:1022E0006E746572206E6577206D6F757365206DF5
:1022F0006F76656D656E74206D756C7469706C6950
:1023000065722028312D3939293E2000456E7465CB
:1023100072206E65772062617365206D6F757365DD
:10232000206D6F76656D656E742028312D393929E1
:102330003E20000A456E746572206E657720646FDA
:1023400075626C657461702064656C617920746974
:102350006D6520696E206D732028312D393939293A
:102360003E20000A456E746572206E6577207461A8
:10237000702074696D6520696E206D732028312D81
:10238000393939293E2000456E746572206E6577B3
:10239000206465626F756E63652074696D65206980
:1023A0006E206D732028312D3939293E2000536568
:1023B000743A2000456E746572206E6577206465FE
:1023C0006661756C74206C617965722028302D39D6
:1023D000293E200042797465732028686578293E7B
:1023E0002000416464726573732028686578293E13
:1023F000200020532D3078005D20432D3078000AD6
:102400005B004E756D206C6F636B206973206C6987
:102410006E6B656420746F207468652073797374C3
:10242000656D206E756D206C6F636B2E0A004E75A6
:102430006D206C6F636B2077696C6C2066756E63C2
:1024400074696F6E20696E646570656E64656E7424
:102450006C79206F66207468652073797374656D7C
:10246000206E756D206C6F636B2E0A004B65796270
:102470006F61726420616374732061732065787486
:10248000656E646564204E4B524F206B6579626FB8
:102490006172642077697468206D6F75736520615F
:1024A0006E64206D65646961206B6579732E0A0026
:1024B0004B6579626F61726420616374732061732C
:1024C00020364B524F206B6579626F6172642070C9
:1024D0006C7573206D6F75736520616E64206D651A
:1024E000646961206B6579732E0A004B6579626FB0
:1024F000617264206973206C696D6974656420740D
:102500006F207374616E6461726420364B524F2089
:10251000626F6F742D636F6D70617469626C65209A
:102520006B6579626F6172642E0A005363726F6C1F
:102530006C206C6F636B2077696C6C206E6F7420FD
:102540006166666563742077696E206C6F636B2EBD
:102550000A0057696E646F7773206B65792077691D
:102560006C6C2062652064697361626C65642077BD
:1025700068656E207363726F6C6C206C6F636B2088
:10258000697320656E61626C65642E0A004E756D1C
:10259000206C6F636B2077696C6C206E6F742061A8
:1025A0006666656374206E756D62657220726F7702
:1025B0002E0A004E756D62657220726F7720776902
:1025C0006C6C206265207377617070656420666F43
:1025D00072206E756D706164206B65797320776809
:1025E000656E206E756D206C6F636B20697320655E
:1025F0006E61626C65642E0A00496E707574206E9F
:102600006F74207265636F676E697A65642E0A0065
:102610000A54696D696E67204D656E753A0A3129F5
:1026200020536574206465626F756E6365207469FC
:102630006D650A322920536574206D617820686FBA
:102640006C642074696D6520666F72207461700A15
:10265000332920536574206D61782064656C61793D
:102660002074696D6520666F7220646F75626C6599
:10267000207461700A342920536574206261736587
:10268000206D6F757365206D6F76656D656E740A6C
:10269000352920536574206D6F757365206D6F76D5
:1026A000656D656E74206D756C7469706C696572AA
:1026B0000A362920536574206D696E20686F6C643A
:1026C0002074696D6520666F722072657065617433
:1026D0000A37292053657420726570656174207013
:1026E0006572696F640A3929204261636B0A3E2072
:1026F000000A436F6E666967204D656E753A0A3150
:102700002920546F67676C65207669727475616CF7
:10271000206E756D207061640A322920546F6767DE
:102720006C652077696E206C6F636B206F6E207311
:1027300063726F6C6C206C6F636B0A332920536576
:10274000742064656661756C74206C617965720AC9
:10275000342920546F67676C652062617369632058
:102760006B6579626F6172640A352920546F6767FF
:102770006C6520756E6C696E6B206E756D206C6F6C
:10278000636B0A3629205365742064656661756C35
:10279000742064696D6D6572206C6576656C0A37AE
:1027A00029205365742064656661756C74206261CC
:1027B000636B6C6967687420656E61626C650A3969
:1027C00029204261636B0A3E20000A4465627567F6
:1027D000204D656E753A0A3129205072696E742059
:1027E0006576656E74730A322920436C65617220C8
:1027F0006576656E74730A3329204578616D696E5C
:1028000065206D656D6F72790A3429205072696E8A
:10281000742F636C65617220636C6F636B2D696EDE
:10282000730A3929204261636B0A3E20000A4D6118
:10283000696E204D656E753A0A312920436F6E66C8
:102840006967206D656E750A32292054696D696E5D
:1028500067206D656E750A332920446562756720AF
:102860006D656E750A34292052657365740A3929BD
:1028700020517569740A3E20001E4D1F51204E21C3
:10288000502200234F244A2552264B2749374CE239
:1028900000E900EA00E500B500B600B700CD00246D
:1028A00002250283018A019201940121022302C1BF
:1028B00001C202C304C408C510E001E102E204E35E
:1028C00008E410E520E640E78000E1E0F6E085EC72
:1028D0009AE001C08193EF3FF907E0F3D9F31124A7
:1028E0001FBECFEFDAE0DEBFCDBF24B714BE88E154
:1028F0000FB6F89480936000109260000FBE23FF23
:102900000DC08091FF05909100068D3A9E4D31F4E7
:10291000109200061092FF050C94003F85B7806866
:1029200085BF85B7806885BF2093FE0511E0A0E0D4
:10293000B1E0E6EBF8E602C005900D92AA38B107C7
:10294000D9F725E0AAE8B1E001C01D92AA37B20785
:10295000E1F70E94B32F0C9459340C9400001092AC
:10296000B5011092B4011092B0011092AF01109213
:10297000BF011092BE0108959091B1018091BC01F8
:102980009923D9F1811140C08091B301811131C0E7
:102990008091D001811126C08091AB01811124C0AA
:1029A000E091AA01E91305C01092B1011092AA01A9
:1029B0002BC081E08E0F8093AA01F0E0EE0FFF1F85
:1029C000E054FE4F80819181813019F49093B301DE
:1029D0001BC09093AB018093D0018823A9F00E9483
:1029E000192112C00E944E211092D0011092AB0109
:1029F0000BC081508093B30107C0811105C0809145
:102A0000B2018D7F8093B2018091BC01811103C01E
:102A100081E08093BC01089580910A039091AC01FC
:102A2000981739F18093AC01882319F1883211F09D
:102A3000883531F48091B2018B7F8093B201089583
:102A40009091AE018A3259F4992399F09150909364
:102A5000AE01E92FF0E0EA54FE4F1082089596305F
:102A600040F4E92FF0E0EA54FE4F80839F5F90939B
:102A7000AE0108957091B1019C01672F462F471B4D
:102A8000683058F06093B101840F911D47FD9A950D
:102A90009093BF018093BE0122C0F90145915491EA
:102AA0002F5F3F4F411109C06093B1011092BF01E8
:102AB0001092BE016623C1F012C0FA01FF27EE0F8B
:102AC000FF1FEE50FF4F45915491E62FF0E0EE0FBF
:102AD000FF1FE054FE4F518340836F5FCFCF809143
:102AE000B20183608093B20181E008954091B10109
:102AF00028E030E0241B31092617370750F140E069
:102B0000242F332727FD309526173707D0F450910F
:102B1000B101FC01E20FF31FE081F0E0EE0FFF1FB7
:102B2000EE50FF4F25913491E52FF0E0EE0FFF1F9F
:102B3000E054FE4F318320835F5F5093B1014F5FBC
:102B4000DFCF672B41F08091B20183608093B201A7
:102B500002C080E0089581E008959091B10198301D
:102B600090F4E92FF0E0EE0FFF1FE054FE4F80835A
:102B700061839F5F9093B1018091B20183608093E4
:102B8000B20181E0089580E008952091B101211102
:102B900032C09C0160E0683060F06093B101262F84
:102BA000220F330B280F391F3093B5012093B40146
:102BB0001BC0F901459154912E5F3F4F41155105BE
:102BC00049F46093B1011092B5011092B4016623EB
:102BD00081F00AC0E62FF0E0EE0FFF1FE054FE4F39
:102BE000518340836F5FD7CF8091B2018360809320
:102BF000B20181E0089580E00895CF93DF932091A2
:102C0000B101211140C06093BD01C0E0DC01D62FAD
:102C100020E030E02617370741F1C83068F0C09354
:102C2000B101D093BD01220F331F280F391F3093FC
:102C3000B0012093AF011DC04D915D91EC2FF0E0EC
:102C4000EE0FFF1FE054FE4F51834083CF5FD15002
:102C50002F5F3F4FD111DECFC093B1011092BD0164
:102C60001092B0011092AF0104C0C093B101D09393
:102C7000BD018091B101882341F08091B201836050
:102C80008093B20102C080E001C081E0DF91CF916A
:102C900008952091B20121FD0C94BC148091B401DF
:102CA0009091B501009711F00C94C5158091AF017A
:102CB0009091B001009739F06091BD01772767FDD1
:102CC00070950C94FD158091BE019091BF01009705
:102CD00011F00C943A1522FD0C940C151092B201CF
:102CE00008951092B6011092B7011092B801109297
:102CF000B9011092BA011092BB011092AE018091FD
:102D00000A038093AC018091B20185608093B20187
:102D10000895E82FF0E0EE0FFF1FEE50FF4F859172
:102D20009491089581E08093D40108952091D40175
:102D3000AC01249FC001259F900D11246AE070E032
:102D40000E94A2338091D301562F581B852F609388
:102D5000D3012F5F2093D4012B3028F01092D301A0
:102D600091E09093D401089580911C04811104C0D6
:102D700080911103882319F181E08093D70120917C
:102D8000DC019091D5018091E2013091D6013111A1
:102D900021C0989FC0011124820F911D0E94961698
:102DA00090911C04899F902D11249093D2019091B1
:102DB0001103899F802D11248093D1010BC01092A3
:102DC000D7011092D3011092D2011092D1018AE062
:102DD0008093D4018091D601811103C081E080935A
:102DE000D6010895CF93DF93CDB7DEB762970FB6C4
:102DF000F894DEBF0FBECDBF68E16093DD01109295
:102E0000E5011092E9011092DB0150E15093E101DC
:102E10001092E80146E04093EA011092DE01109220
:102E2000D80180EF90E09093E4018093E30188E87B
:102E30009FEF9093E0018093DF0135E03093DC0158
:102E40002FE02093E20180E293E09093E7018093EA
:102E5000E60180E28093DA0169831A821B821C8278
:102E60005D831E824F831886198690EF9A871B8692
:102E700098E89C879FEF9D873E872F87888B93E0FC
:102E8000998B8A8B42E150E060E070E0CE010196C0
:102E90000E942C3462960FB6F894DEBF0FBECDBFF1
:102EA000DF91CF9108950F931F93CF93DF93C2EEDD
:102EB000DEE1FE01329684913196E49190E0E230B9
:102EC00059F4FE0105911491805090400E942634DF
:102ED000F8019183808309C0FE010591149180500F
:102EE00090400E941E34F80180832496FFE1CE3189
:102EF000DF07F9F66091DD01683139F070E041E0FB
:102F000080E50E94431B0E94F2168091E8018093A5
:102F1000D901DF91CF911F910F91089590E0FC01AD
:102F2000EE0FFF1FEE0FFF1FEC51F14E2491FC013D
:102F3000EE0FFF1FEE0FFF1FEB51F14E3491FC011E
:102F4000EE0FFF1FEE0FFF1F822F90E0EE51F14EAC
:102F5000323041F4A591B4916D917C9180509040B4
:102F60000C944434A591B4916C91805090400C9491
:102F7000363485E08093EE0108958091ED012EE2D4
:102F80008202C0011124865D914EFC01B9964491E4
:102F90003196349131962491319654919091BD019E
:102FA0008091EB01913079F01CF4992331F01FC02E
:102FB000923081F09330A9F01AC0442321F06AE1E5
:102FC0000E9496332EC0332329F06AE10E94963383
:102FD000965E27C0222329F06AE00E9496339C5C0B
:102FE00020C0552321F0982F9F71925C1AC0411187
:102FF00002C060E001C06AE13111665E2111665FC6
:103000005111605E0E949633411101C0965E3111EC
:1030100003C09A3134F0965E211103C094330CF052
:10302000965FE92FFF27E7FDF095E250F04E84917F
:10303000089584509272E82FF0E0EE0FFF1F911177
:1030400003C0E25EF04E02C0E15EF04E849108954E
:103050000F931F93CF93DF93C091ED018EE2C802CF
:10306000E0011124C65DD14E2091BD01332727FD1B
:103070003095FE01B896649170E0C9010E94B633A4
:10308000182F0091EB016091AD01772767FD7095D6
:10309000C9010E94B6339927880F991F8E5E9C4FF5
:1030A000FC01808191810E941918800F982F990F3F
:1030B00087FD9F5F9093EB01FE01E10FF11DC4912D
:1030C0008091EB018C278093EB01DF91CF911F91D1
:1030D0000F910895EF92FF920F931F93CF93DF9379
:1030E0001F92CDB7DEB78091ED012EE28202C001C2
:1030F0001124865D914EFC01BD966491062F10E06F
:1031000030E5E32EF12CE01AF10AEE0CFF1CF7017A
:10311000EE5EFC4F7F012091EE01223009F440C0A9
:1031200028F4222351F02130C1F0ADC0233009F43E
:1031300058C0243009F47EC0A6C01092EB0121E0F3
:103140002093EE011092BD01FC01B896849181118B
:103150009AC085E08093EE0196C02091BD01FC01EC
:10316000E20FF11D27FDFA9544913091EB01430FD9
:103170004093EB012F5F2093BD01FC01B896849131
:10318000332727FD309590E0281739070CF47BC0D2
:1031900082E08093EE011092BD014093EC0173C078
:1031A0001091EC01A091BD01AA0FBB0BAE5EBC4F0C
:1031B0008D919C9169830E941918810F8093EC0175
:1031C0009091BD019F5F9093BD012091AD016981F8
:1031D00092170CF458C00E9496339093EC0183E050
:1031E00024C00E9428188091EC01E80EF11CE80E22
:1031F000F11C0E94BD170E948916F70191838083FC
:103200008091EC0190E00196B8010E94B633809362
:10321000EC018091BD018F5F8093BD01992787FDEF
:103220009095801791077CF184E08093EE011092D5
:10323000BD0129C04091BD01842F880F990BE80F73
:10324000F91F20813181DC01AE5EBC4F2D933C9390
:1032500081E0840F8093BD01992787FD90958017A9
:1032600091078CF085E08093EE016093AD01B80189
:1032700082E193E00F90DF91CF911F910F91FF902A
:10328000EF900C94FD150F90DF91CF911F910F914E
:10329000FF90EF9008958091EE01853011F00C942D
:1032A0006A180895292F332723303105E9F044F4B3
:1032B0002130310509F44FC02230310541F05AC0A8
:1032C0002132310501F12232310591F153C0809153
:1032D000D901833009F444C0813009F046C084E547
:1032E00090E025EA30E263C09927009731F001971A
:1032F00009F040C0EDE5F0E202C0EFE7F0E28491B2
:1033000090E09F0154C06130D1F138F0623091F506
:1033100089E090E02DE331E24AC08091D901833009
:1033200099F18130B1F589E090E027EB30E23FC0C0
:103330006130A1F138F06230E9F48BE190E02FE5E3
:1033400031E235C08091D90180FF2DC08FE390E03C
:1033500023EF31E22CC082E190E02DE431E227C07E
:1033600082E290E023E830E222C084E590E029EF99
:1033700030E21DC080E090E020E030E018C089E03D
:1033800090E024E231E213C089E090E025E930E2E8
:103390000EC089E090E02BE031E209C08AE390E0C2
:1033A0002AE731E204C08FE390E024EB31E2FA0136
:1033B00031832083089508950895CF93DF9380E2A9
:1033C00091E00E947729C82F8091D90181FD0BC01F
:1033D00080E191E00E947729D82F80E091E00E945F
:1033E00077298D23C823CC2311F080E001C083E02E
:1033F0000E94C6278091E20084608093E200DF9102
:10340000CF91089580E291E00E9440288091D901F7
:1034100081FD08C080E191E00E94402880E091E0B9
:103420000C944028089580912E0190912F010097CF
:1034300029F0019790932F0180932E018091D9015B
:1034400081FD16C080911E0190911F01009729F007
:10345000019790931F0180931E0180910E0190911E
:103460000F01009729F0019790930F0180930E01AF
:103470000895089580E00C94C62780E00C94C62738
:103480000F931F93CF93DF93E90121E080329207DE
:10349000F1F41092BC012091D901CE01029620FDD9
:1034A00007C020912901222319F00E941C2702C085
:1034B0000E940527CE010E942A278091D90180FF12
:1034C00003C088E090E024C082E190E021C08051F8
:1034D0009140B1F41092D60180911B0488838091B1
:1034E000D20189838091D1018A8383E090E0F80141
:1034F0009183808381E09091D70191110DC00BC021
:103500008091B3039091B4039983888382E090E023
:10351000F8019183808380E0DF91CF911F910F911B
:103520000895CF93DF93E9018052914009F056C08E
:103530008091DE01811114C098818091E90190FF92
:1035400009C0882319F081E080931F0480E00E9465
:10355000CD2706C0811110921F0480E00E94DA2757
:10356000888181FF04C081E00E94CD2703C081E0F3
:103570000E94DA27888182FF0EC082E00E94CD2758
:103580008091E501882399F081E08093210485E012
:103590000E94CD270CC082E00E94DA278091E501CD
:1035A000882329F01092210485E00E94DA2788817F
:1035B00083FF04C083E00E94CD2703C083E00E9404
:1035C000DA27888184FF05C084E0DF91CF910C94D5
:1035D000CD2784E0DF91CF910C94DA27DF91CF9152
:1035E00008958091D90180FF09C088E08093280167
:1035F00088E090E09093230180932201089580E277
:1036000091E00E948B298091D90181FD08C080E161
:1036100091E00E948B2980E091E00E948B290E941A
:10362000FB2E8091310490918A01981759F0609196
:10363000310470E041E086EA0E94431B809131042E
:1036400080938A01089580912F04882331F080911E
:103650003104853011F40C944D2A08950895909109
:103660002502903178F4292F30E0F901EE0FFF1F89
:10367000E20FF31FE051FE4F8083728361839F5FEF
:1036800090932502089541111AC04091250250E0FF
:1036900090E0292F332727FD3095241735077CF438
:1036A000F901EE0FFF1FE20FF31FE051FE4F2081E3
:1036B000281303C07283618308959F5FEACF0C943F
:1036C0002F1B8A3010F4805D0895895C08951F9344
:1036D000CF93DF93182FEB0182958F700E94611BAF
:1036E0008883812F8F700E94611B8983DF91CF9126
:1036F0001F9108951F93CF93DF93182FEB01892F0C
:103700000E94671BBE016E5F7F4F812FDF91CF91BB
:103710001F910C94671B8F929F92AF92BF92CF9292
:10372000DF92EF92FF920F931F93CF93DF931F923D
:10373000CDB7DEB79C014B0180E3FB01808380E2C3
:103740008183828303E010E0B4E6CB2ED12C8AE0A3
:10375000B82E6C2D70E0D11003C02617370798F0F3
:103760007401ED0CF11CD7FCFA94C9010E94A2333C
:10377000A82E862F99830E94611BF70180832A2D32
:103780009981392FD3948C2D6B2D0E949633C82E9E
:103790000150110901151105E1F60F90DF91CF914C
:1037A0001F910F91FF90EF90DF90CF90BF90AF905F
:1037B0009F908F90089597EA980F993010F488554C
:1037C000089592EE980F993010F48D5108959CEF62
:1037D000980F963010F48A5F089580E00895BF92A4
:1037E000CF92DF92EF92FF920F931F93CF93DF93CD
:1037F000EC018B0180E090E0B12CE42EF12C2B2D1C
:10380000332727FD30952017310798F48E9D6001EE
:103810008F9DD00C9E9DD00C1124FE01E20FF31F52
:1038200080810E94DB1B9601280F311DC901B394D2
:10383000E6CFDF91CF911F910F91FF90EF90DF9036
:10384000CF90BF9008950F931F93CF93DF9300D035
:1038500000D0CDB7DEB78091B20181117DC48091D7
:10386000EF0190E08931910508F074C4FC01EA5A37
:10387000FF4F0C94EC338DE298E20E943A150E94BF
:10388000711682E064C411E01093EF018091B601DB
:103890000E94DB1B893009F45DC4843019F4109355
:1038A00026025AC4813009F451C4823009F405C497
:1038B000833009F4B8C289EF95E222C081EF96E225
:1038C0000E943A150E94711684E041C413E01093DF
:1038D000EF018091B6010E94DB1B893009F4B2C16F
:1038E0008130A1F49091E90198279093E90182E059
:1038F0000E948E178091E901882329F083EB95E2DD
:103900000E943A1529C48DE895E2FACF823099F4E5
:103910008091E50191E089278093E50181E00E9493
:103920008E178091E501882319F082E595E2E8CFB2
:103930008BE295E2E5CF8330D9F48EEA93E20E94E0
:103940003A15BE016F5F7F4F8091DB010E94671BBC
:103950008AE08B8363E070E0CE0101960E947615C9
:1039600084EB93E20E943A150E9471168FE0EFC338
:103970008430F9F48091E801811109C081E08093DD
:10398000E80185E00E948E1780EB94E2B9CF813088
:1039900041F41093E80185E00E948E178BEE94E2CB
:1039A000AFCF1092E80185E00E948E178CE694E27A
:1039B000A7CF853099F48091DE0191E0892780932B
:1039C000DE0187E00E948E178091DE01882319F0C6
:1039D0008EE294E295CF82E094E292CF8630E1F4D9
:1039E0008EEA93E20E943A158091E101BE016F5F79
:1039F0007F4F90E00E948B1B8AE08B8363E070E036
:103A0000CE0101960E94761581E492E20E943A1559
:103A10000E94711680E19BC3873009F04CCF8EEA7B
:103A200093E20E943A158091D80190E0BE016F5F49
:103A30007F4F01960E948B1B8AE08B8363E070E0CE
:103A4000CE0101960E94761589E692E20E943A150F
:103A50000E94711681E17BC380E196E20E943A15D3
:103A60000E94711688E073C387E08093EF01809114
:103A7000B6010E94DB1B893009F4E4C08130E1F417
:103A80008EEA93E20E943A158091EA01BE016F5FCF
:103A90007F4F90E00E948B1B8AE08B8363E070E095
:103AA000CE0101960E94761587E893E20E943A15AE
:103AB0000E94711682E14BC38230D9F48EEA93E200
:103AC0000E943A15BE016F5F7F4F8091E301909194
:103AD000E4010E948B1B63E070E0CE0101960E941E
:103AE000761583E693E20E943A150E94711683E1EF
:103AF0002EC38330F1F48EEA93E20E943A1580914E
:103B0000DF019091E001BE016F5F7F4F919581953C
:103B100091090E948B1B63E070E0CE0101960E9428
:103B2000761583E393E20E943A150E94711684E1B0
:103B30000EC38430E1F48EEA93E20E943A1580913C
:103B4000DC01BE016F5F7F4F90E00E948B1B8AE01B
:103B50008B8363E070E0CE0101960E9476158CE0C5
:103B600093E20E943A150E94711685E1F0C28530F9
:103B7000E1F48EEA93E20E943A158091E201BE01DF
:103B80006F5F7F4F90E00E948B1B8AE08B8363E026
:103B900070E0CE0101960E9476158FED92E20E94B0
:103BA0003A150E94711686E1D2C28630D9F48EEAA7
:103BB00093E20E943A15BE016F5F7F4F8091E6014C
:103BC0009091E7010E948B1B63E070E0CE010196AB
:103BD0000E9476158AEB92E20E943A150E947116B5
:103BE00087E1B5C2873009F0B7C28EEA93E20E943E
:103BF0003A158091DA01BE016F5F7F4F90E00E941D
:103C00008B1B8AE08B8363E070E0CE0101960E94FB
:103C1000761584E992E20E943A150E94711688E1B5
:103C200096C28AEC97E20E943A150E94711686E0CD
:103C30008EC285E08093EF018091B6010E94DB1B6C
:103C4000893011F481E083C2813011F489E07FC2B0
:103C5000823069F4E0EFF1E0108212821182339633
:103C600042E0E032F407C1F71092250275C28330BA
:103C700041F482EE93E20E943A150E9471168CE0A4
:103C800066C2843009F017CE8EE061C280912402B2
:103C9000803158F0109224028AE0898361E070E05C
:103CA000CE0101960E947615BEC08FEF93E20E946E
:103CB0003A15BE016F5F7F4F809124020E94671BFF
:103CC00062E070E0CE0101960E94761588EF93E2E3
:103CD0000E943A158AE03BC28091240290E0FC01E8
:103CE000EE0FFF1FE80FF91FE051FE4FBE016F5F9F
:103CF0007F4F80810E94671B62E070E0CE010196D9
:103D00000E94761582EF93E20E943A158BE01FC263
:103D10008091240290E0FC01EE0FFF1FE80FF91FD5
:103D2000E051FE4FBE016F5F7F4F818192810E9403
:103D30007A1B64E070E0CE0101960E94761589E05E
:103D40008093EF01ADC06091AE0170E040E186EB81
:103D500091E00E94EF1B9093210280932002109229
:103D600023021092220284ED93E20E943A150E94EF
:103D700071168DE0ECC18091220290912302892B73
:103D800091F400912002109121026091AE0170E047
:103D900040E186EB91E00E94EF1B800F911F909312
:103DA00023028093220210E20AE0E0912002F091C7
:103DB00021028091220290912302E817F907E8F48A
:103DC000BE016F5F7F4F80810E94671B809122023E
:103DD000909123020197209120023091210228170F
:103DE000390711F40B8301C01B8363E070E0CE013F
:103DF00001960E94761581110CC02091200230910D
:103E0000210280912202909123022817390758F449
:103E1000A3C18091200290912102019690932102EA
:103E200080932002C2CF85E092C1809124028A3023
:103E300080F0109224028AE0898361E070E0CE0174
:103E400001960E94761585E08093EF010E944B3227
:103E500083C1182F1695082F017080FD02C08AE0DB
:103E600001C080E2898361E070E0CE0101960E948A
:103E7000761585E0089FF0011124E10FF11DEE0F8A
:103E8000FF1FEF59FA4FBE016F5F7F4F8081918115
:103E90000E947A1B64E070E0CE0101960E947615C4
:103EA000809124028F5F8093240256C16091AE01FD
:103EB00070E04AE086EB91E00E94EF1B8A309105AA
:103EC00008F040C18093DB0183E00E948E178EEAE8
:103ED00093E20E943A15BE016F5F7F4F8091DB0134
:103EE0000E94671B26C16091AE0170E04AE086EB3C
:103EF00091E00E94EF1B9C012150310923363105CE
:103F000008F0D7C08093EA0186E00E948E178EEAFF
:103F100093E20E943A158091EA01BCC06091AE0123
:103F200070E04AE086EB91E00E94EF1B9C0121507B
:103F30003109273E334008F0BCC09093E4018093E0
:103F4000E30189E00E948E178EEA93E20E943A15FF
:103F5000BE016F5F7F4F8091E3019091E4017EC0CD
:103F60006091AE0170E04AE086EB91E00E94EF1BA9
:103F70009C0121503109273E334008F09AC09195A9
:103F8000819591099093E0018093DF018AE00E947E
:103F90008E178EEA93E20E943A158091DF0190918C
:103FA000E001BE016F5F7F4F91958195910956C0E9
:103FB0006091AE0170E04AE086EB91E00E94EF1B59
:103FC0009C01215031092336310508F072C08093DD
:103FD000DC018BE00E948E178EEA93E20E943A1574
:103FE0008091DC0157C06091AE0170E04AE086EB41
:103FF00091E00E94EF1B9C012150310923363105CD
:1040000008F057C08093E2018CE00E948E178EEA80
:1040100093E20E943A158091E2013CC06091AE01AA
:1040200070E04AE086EB91E00E94EF1B9C0121507A
:104030003109273E3340E8F59093E7018093E6018C
:104040008DE00E948E178EEA93E20E943A15BE011F
:104050006F5F7F4F8091E6019091E7010E948B1B7B
:1040600021C06091AE0170E04AE086EB91E00E94D1
:10407000EF1B9C012150310923363105D0F4809388
:10408000DA018EE00E948E178EEA93E20E943A15C2
:104090008091DA01BE016F5F7F4F90E00E948B1B21
:1040A0008AE08B8363E070E0CE0101960E94761572
:1040B00004C082E392E20E943A1587E048C0609112
:1040C000AE0170E04AE086EB91E00E94EF1B9C019C
:1040D0002150310920313105A8F58093E10184E0B8
:1040E0000E948E178EEA93E20E943A158091E101B8
:1040F000BE016F5F7F4F90E01AC06091AE0170E02B
:104100004AE086EB91E00E94EF1B0197D9F41092F0
:10411000D80188E00E948E178EEA93E20E943A1539
:104120008091D80190E0BE016F5F7F4F01960E94A1
:104130008B1B8AE08B8363E070E0CE0101960E94C6
:10414000761504C082E392E20E943A1583E08093E0
:10415000EF0102C01092EF010F900F900F900F909F
:10416000DF91CF911F910F91089596E0899FF00103
:104170001124E05DFE4F82819381089596E0899F2E
:10418000F0011124E05DFE4F84819581089596E051
:10419000899FF0011124E05DFE4F0190F081E02D38
:1041A000208181E090E0062E01C0880F0A94EAF792
:1041B000282B2083089596E0899FF0011124E05D6B
:1041C000FE4F0190F081E02D208181E090E0062EED
:1041D00001C0880F0A94EAF78095822380830895AE
:1041E00096E0899FF0011124E05DFE4F0280F3818B
:1041F000E02D208181E090E0062E01C0880F0A9416
:10420000EAF7282B2083089596E0899FF001112476
:10421000E05DFE4F0280F381E02D208181E090E09F
:10422000062E01C0880F0A94EAF7809582238083C6
:104230000895E82FE695E695E695F0E0E350FD4F0A
:10424000982F977021E030E001C0220F9A95EAF78D
:104250009081922B90839091F70220E029175CF4D3
:10426000E22FFF27E7FDF095E65FFC4F308138171E
:10427000A1F02F5FF3CF96305CF4E92FFF27E7FD25
:10428000F095E65FFC4F80839F5F9093F70208955F
:104290001092100381E0809320040895E82FE695A2
:1042A000E695E695F0E0E350FD4F982F977021E0FA
:1042B00030E001C0220F9A95EAF7209590812923DA
:1042C00020834091F7022AE033E0F9019E2F921BF0
:1042D000941724F451915813F9CF01C00895E92F90
:1042E000FF27E7FDF095E65FFC4F818180839F5FAC
:1042F0009417ACF341504093F702109220040895B4
:10430000E82FE695E695E695F0E0E350FD4F982F0F
:10431000977021E030E001C0220F9A95EAF7908172
:10432000922790839091F7022AE033E0F9014E2F13
:10433000421B491724F451915813F9CF13C09630FA
:104340005CF4E92FFF27E7FDF095E65FFC4F8083E3
:104350009F5F9093F70208951092100381E080937D
:1043600020040895E42FFF27E7FDF095E65FFC4F5A
:10437000818180834F5F4917ACF391509093F7028E
:104380001092200408959091B20394305CF4E92FC8
:10439000FF27E7FDF095E850FD4F80839F5F9093E6
:1043A000B203089540E060E070E082E40E94431BA5
:1043B0001092FC0208954091B20328EF32E0F90117
:1043C0009E2F921B941794F451915813F9CFE92F13
:1043D000FF27E7FDF095E850FD4F818180839F5FC7
:1043E0009417ACF341504093B2030895682F70E0E6
:1043F00040E083E40C94431B8091DB018093230411
:10440000089591E1899F600D11248091F302681352
:104410000DC08091DF019091E0018417950734F47D
:10442000809122048F5F8093220408951092F302FA
:10443000109222040895E091E301F091E4014E17F7
:104440005F0754F491E0F9019083F1E18F9F600DD3
:1044500011246093F3020895F90110821092F3027F
:104460001092220408959091BD01E92FEE0FFF0BE9
:10447000EE5EFC4F2091F50230E0322F2227282BF0
:104480003183208381E0890F8093BD0180353CF02A
:1044900010921E048093AD0180E00C94C62708950D
:1044A00090912404911111C0805D8E3070F4E82F3A
:1044B000F0E0EE0FFF1FEA51F24F85919491880FC3
:1044C000991F8A51924F0C94C5150895CF93DF938D
:1044D000C82FD62F0E94C321809123049091DB0125
:1044E000891719F08B5F0E94DA2780E18C0F809387
:1044F000230485E18C0F0E94CD278FE00E94CD27F9
:10450000809123049091F402D0FF02C0981308C058
:10451000981308C080912204811104C08091DB01AE
:104520008093F402DF91CF9108951F93CF93DF938F
:1045300000D01F92CDB7DEB7182F2B834A83698333
:104540000E94DB212B814A816981222399F180918C
:104550002304A82FB0E0212F30E0205F3109A217FB
:10456000B30741F590912204992319F061FD8093DE
:10457000F4028091F60281131DC062FF1BC0141665
:1045800024F46091F502842F13C0842F807E803E36
:1045900089F4E42FF0E0EE0FFF1FE650F94D9491FF
:1045A00090958091F50289238093F502649180E0D3
:1045B0000E94AD15809123048B5F0E94DA27E09161
:1045C000B203E11103C08091F40207C0FF27E7FDA9
:1045D000F095E950FD4F8081805F809323048091A6
:1045E00023049091DB01891749F08B5F0F900F90A6
:1045F0000F90DF91CF911F910C94CD278FE00F90FA
:104600000F900F90DF91CF911F910C94DA276F706C
:10461000623051F028F4662339F0613081F008955A
:10462000643011F06830F1F4E82FF0E0EE0FFF1F76
:10463000E650F94DE4918091F502E82B0AC0E82F8D
:10464000F0E0EE0FFF1FE650F94DE4918091F50286
:10465000E827E093F50280912104882319F0E77799
:10466000E093F5020895CF93C82F6F70623009F47C
:1046700038C018F4662339F151C0643019F068303D
:1046800011F14CC02223F9F08091F6028C131BC06B
:10469000141624F46091F502842F13C0842F807EB9
:1046A000803E89F4E42FF0E0EE0FFF1FE650F94D55
:1046B000949190958091F50289238093F5026491FD
:1046C00080E00E94AD15EC2FF0E0EE0FFF1FE650EA
:1046D000F94DE491E0958091F5028E238093F502E7
:1046E0001DC08091F502EC2FF0E0EE0FFF1FE650A9
:1046F000F94D222371F090912204992351F0E49115
:10470000E82BE093F50280912104882339F0E777C4
:1047100003C0E491E095E823E093F502CF9108957A
:104720006F70623051F028F4662339F0613039F04F
:104730000895643011F0683021F40C9419210C9420
:10474000802108956F70623049F018F461110EC035
:104750000BC0643049F0683049F406C0222321F0D0
:1047600090912204911102C00C944E2108951F9340
:10477000CF93DF931F92CDB7DEB7182F862F807FA0
:1047800011F08093AB01103C78F5103B08F0B5C0F8
:10479000183AC0F4143A08F07DC0123809F46CC01D
:1047A00030F48CEF810F803708F459C002C11438FF
:1047B00009F46CC008F464C0113A09F0FAC00E9410
:1047C0000128FDC01A3A09F4FAC038F4183A09F47D
:1047D00071C0193A09F475C0ECC01E3A09F481C0E1
:1047E0001F3A09F482C0E5C01E3D20F5103D08F0D7
:1047F000B5C0163C09F496C088F4113C08F4D9C041
:10480000EFE3E10FF0E0EE0FFF1FE055F74DE4910D
:1048100080911B048E2B80931B04D1C0183C09F49B
:104820008BC008F483C0193C09F0C3C08091110308
:104830008F5F85C0183E50F4103E08F0B6C01E3D94
:1048400009F490C01F3D09F4A2C0B3C08FE0810FEE
:10485000893008F0AEC0812F0E946622B0C08091DE
:104860001E04882329F0812F69830E9433226981E5
:10487000812F0E949023A3C06091F50289E303C0B9
:104880006091F50283E50E94AD1599C06091F50233
:1048900087E4F9CF80911E04811191C081E080935B
:1048A0001E041092BD01809324048CE5810F809337
:1048B000ED0185C08091240491E089278093240430
:1048C0007EC08091210491E0892780932104811189
:1048D00004C085E00E94DA2772C085E00E94CD27DF
:1048E0006EC082E0809326026AC08091EF01811140
:1048F00066C081E08093EF0162C02091B3033091E4
:10490000B403232B09F05BC0E0E5E10FF0E0EE0F0C
:10491000FF1FE157F74D259134913093B403209355
:10492000B3034DC080911C048F5F03C080911C04B1
:10493000815080931C0405C08091110381508093A5
:1049400011039091D70180912204992321F0909135
:10495000D5019817A0F58093D50131C0812F0E9411
:1049600050222DC080911E0491E0892780931E045F
:10497000882321F01092BD0182E006C08091BD0124
:1049800081118093AD0180E00E94C62718C08091FC
:104990001E04811114C06091AD01772767FD7095E9
:1049A00082E193E00E94FD150AC0812F0E94072337
:1049B00006C0612F70E040E084E40E94431B109326
:1049C000F6020F90DF91CF911F9108951F93CF931F
:1049D000DF9300D01F92CDB7DEB7182F862F807FD0
:1049E00011F01092AB01163C28F5113C08F08CC078
:1049F0001B3AB0F4113A08F0CCC0123809F45FC089
:104A000028F48CEF810F8037D0F1B7C0133809F448
:104A10005AC0143809F0B1C06091F50287E456C05D
:104A20001E3A08F4AAC0103B08F4B3C0103C08F4C6
:104A300055C0A3C0103E90F4103D08F0AAC0173C2A
:104A400009F475C008F46FC0183C09F476C0193C2D
:104A500009F093C080911103815072C0183E08F490
:104A600072C08FE0810F893008F087C0812F0F90CE
:104A70000F900F90DF91CF911F910C949522809110
:104A80001E04882399F080912404882379F0183239
:104A900011F01B3259F41092240410921E048091DC
:104AA000BD0181508093AD011092EE01812F0F90D6
:104AB0000F900F90DF91CF911F910C94A2236091E2
:104AC000F50289E303C06091F50283E50F900F9032
:104AD0000F90DF91CF911F910C94AD15105BE12FDA
:104AE000F0E0EE0FFF1FE157F74D85919491209173
:104AF000B3033091B4032817390709F04AC0109264
:104B0000B4031092B30345C0115CE12FF0E0EE0F47
:104B1000FF1FE055F74DE491E09580911B048E2333
:104B200080931B0436C080911C04815003C0809187
:104B30001C048F5F80931C042CC0809111038F5F35
:104B40008093110326C080911E04882369F0809110
:104B5000F602811309C080E02B834A8369830E9497
:104B6000332269814A812B81812F0F900F900F9002
:104B7000DF91CF911F910C943323612F70E040E0BF
:104B800085E40F900F900F90DF91CF911F910C94BF
:104B9000431B0F900F900F90DF91CF911F910895BD
:104BA0002091F502227291E009F090E02091E90154
:104BB000222359F020911F04222339F0992329F050
:104BC00022EE280F2A3008F4855C2091DE01222392
:104BD00049F1833581F480911F0491E08927809306
:104BE0001F04882321F080E00E94CD2723C080E0AD
:104BF0000E94DA271FC027EA280F2B3098F4209153
:104C00001F04E82FF0E0EE0FFF1F222341F099234D
:104C100031F0E953F84D84918A3A69F407C0E853BA
:104C2000F84D84918A3A39F4992311F089E2089574
:104C300085E3089580E008958F929F92AF92BF928E
:104C4000CF92DF92EF92FF920F931F93CF93DF9358
:104C50001F92CDB7DEB7D82E7A01862E912C809187
:104C600023040D2D10E091E1D99EF001112496E668
:104C7000899FE00DF11D1124E80DF91DE651F64F55
:104C8000849169830E94D025C82E80912304282F07
:104C900030E091E1909FF001919FF00D112496E694
:104CA000899FE00DF11D1124E80DF91DE251FA4F25
:104CB000B49086E6829FF001839FF00D112421E1DC
:104CC000209FC001219F900D1124E80FF91FE80DCE
:104CD000F91DEE50FE4FA49081E1809F9001819FCD
:104CE000300D1124280D391DD901A357BD4FCC9289
:104CF000D901AB54BC4FBC92F901E95DFD4FA082D4
:104D0000A70169818D2D0E9401224A2D6B2D8C2DCA
:104D10000E94B7230F90DF91CF911F910F91FF90C9
:104D2000EF90DF90CF90BF90AF909F908F900C94BA
:104D3000231B9F92AF92BF92CF92DF92EF92FF928E
:104D40000F931F93CF93DF931F92CDB7DEB791E1FF
:104D5000899F90011124260F311DF901E357FD4F62
:104D60006F01B080F901EB54FC4F7F01A0808901F5
:104D7000095D1D4FF80190809E012F5F3F4F0E94FB
:104D80001B222981492D6A2D8B2D0E94E624F601D4
:104D90001082F7011082F80110820F90DF91CF91FD
:104DA0001F910F91FF90EF90DF90CF90BF90AF9049
:104DB0009F90089591E1899F90011124260F311D44
:104DC000F901E357FD4F8081F901EB54FC4F9081CD
:104DD00093FF1AC018161CF46091F50213C0982FA7
:104DE000907E903E89F4E82FF0E0EE0FFF1FE65032
:104DF000F94D949190958091F50289238093F50265
:104E0000649180E00C94AD15089520912404211143
:104E100012C0FC01AAE0B3E081E090912004992344
:104E200011F0808302C09C9190833196119693E09B
:104E3000A031B90791F7089520912404211109C0E8
:104E4000ADEFB2E0FC018D91819383E0AA30B80709
:104E5000D1F7089520912404211107C02091AB01BE
:104E60003091F502232BFC012083089591E1899F65
:104E7000F0011124E60FF11DE651F64FE491E832FE
:104E800011F0E83541F441E060E070E081E50E9416
:104E9000431B0C94F2160895282F30E0F901EE0F11
:104EA000FF1FE20FF31FE850F24E8491F901EE0F5D
:104EB000FF1FE20FF31FE950F24E681759F064919B
:104EC000F901EE0FFF1FE20FF31FEA50F24E84913B
:104ED0000C94F0206491F901EE0FFF1FE20FF31F15
:104EE000EA50F24E84910C940421E7EFFDE16491C5
:104EF000E6EFFDE184910E94C72060E080E00E941F
:104F00004C27EAEFFDE16491E9EFFDE184910E9415
:104F1000C72060E081E00E944C278091E1018093EE
:104F20002A040895CF9380912C0490912D044091F0
:104F3000280464EF71E0469F9001479F300D1124D3
:104F40008217930730F40E94A233C1E08A3F910593
:104F500008F0C0E06C2F80E00E944C276C2F81E0AD
:104F60000E944C2780912C0490912D040196803D45
:104F700027E0920728F490932D0480932C0404C01A
:104F800010922D0410922C04CF9108958093280440
:104F900010922D0410922C040895E82FF0E0EA51AD
:104FA000F24EE491E23028F4F0E0EB5DFB4F81E05B
:104FB00080830895E82FF0E0EA51F24EE491E23068
:104FC00020F4F0E0EB5DFB4F108208951F93CF9328
:104FD000DF93C5E2D4E010E080912704882329F014
:104FE0008881882311F061E001C060E0812F0E9478
:104FF0004C271F5F2196123079F7DF91CF911F91D7
:10500000089580912A04803110F081E002C08C5F05
:105010008C7F80932A04089580912B048F5F8131C7
:1050200018F480932B04089581E080932B04109250
:105030002904089590912A04903120F081E0809312
:10504000270408958091290420912B04929F902D8C
:105050001124891738F491E090932704805F80939E
:10506000290408951092270408950E940C280E9494
:105070001A288091280481110C9492270C94E62719
:105080006F927F928F929F92AF92BF92CF92DF9258
:10509000EF92FF920F931F93CF93DF9300D01F9255
:1050A000CDB7DEB77C01ADB6BEB68091E80083FF18
:1050B00007C1F701808190E02091360430913704D8
:1050C0002817390709F0FCC080913304833009F4B4
:1050D0009BC030F4813071F0823009F4D4C0F0C04C
:1050E0008A3009F4B7C08B3009F49FC0893009F0C9
:1050F000E7C04BC080913204813A09F0E1C08DB61F
:105100009EB61A82198280913404109135048B83E3
:10511000F701408550E08DB79EB7841B950B0FB605
:10512000F8949EBF0FBE8DBFEDB7FEB731966F01ED
:1051300060E070E0CF010E9417344FEF410F8E0105
:105140000F5F1F4F9601BE016D5F7F4FC7010E9429
:10515000401AF70186819781009729F0408550E039
:10516000B6010E940E341092E9008091E800877F1A
:105170008093E80069817A81C6010E94AE2A8091FD
:10518000E8008B778093E80039C080913204813247
:1051900009F096C08DB69EB600913804109139047E
:1051A00070903404609035048DB79EB7801B910BCE
:1051B0000FB6F8949EBF0FBE8DBFEDB7FEB7319608
:1051C0006F018091E800877F8093E800B801CF01EC
:1051D0000E94092B8091E8008E778093E80021E0FF
:1051E000711001C020E030E0021B130B2C0D3D1D9F
:1051F0004FEF460D672DC7010E94911A0FB6F89424
:105200009EBE0FBE8DBE5CC080913204813A09F013
:1052100057C08091E800877F8093E8008091E80084
:1052200080FFFCCFF701818542C08091320481323A
:1052300009F046C08091E800877F8093E8000E94D3
:105240001A2C9091340481E0911101C080E0F701A3
:10525000818736C080913204813291F58091E800D7
:10526000877F8093E8000E941A2C809134049091EB
:105270003504882736E0969587953A95E1F7F7014A
:10528000958784871DC080913204813AC9F480914A
:10529000E800877F8093E8008091E80080FFFCCFE2
:1052A000F701848595859695879596958795809342
:1052B000F1008091E8008E778093E8000E941A2C1C
:1052C0000FB6F894BEBE0FBEADBE0F900F900F90FC
:1052D000DF91CF911F910F91FF90EF90DF90CF90D2
:1052E000BF90AF909F908F907F906F900895FC013A
:1052F000399627E0DF011D922A95E9F721E0FC01AC
:10530000218724EF31E03587248723E0248361E07F
:1053100001960C94DC2B5F926F927F928F929F92FA
:10532000AF92BF92CF92DF92EF92FF920F931F93B3
:10533000CF93DF9300D01F92CDB7DEB77C01ADB61F
:10534000BEB680913104843009F08FC08091E400B2
:105350009091E500F701228533852817390709F474
:1053600084C081818F708093E9008091E80085FF7F
:105370007CC08DB69EB6408550E08DB79EB7841B2D
:10538000950B0FB6F8949EBF0FBE8DBFEDB7FEB75D
:1053900031966F011B821A82198260E070E0CF01A2
:1053A0000E9417348E010F5F1F4F960140E0BE012F
:1053B0006D5F7F4FC7010E94401A682EF7018485F8
:1053C0009585892B41F021E086859785892B09F009
:1053D00020E0722E01C0712CF701068117810115A2
:1053E000110599F049815A81B801C6010E94013422
:1053F00055245394892B09F4512CF701408550E032
:10540000B601C8010E940E3401C0512C29813A8195
:10541000232BF9F0611004C0511002C070FE19C0B6
:10542000F701848595859787868781818F70809322
:10543000E9008B8181118093F10069817A8140E0DC
:1054400050E0C6010E94632A8091E8008E77809325
:10545000E8008091E4009091E500F701938782874E
:105460000FB6F8949EBE0FBE8DBE0FB6F894BEBEAA
:105470000FBEADBE0F900F900F90DF91CF911F9197
:105480000F91FF90EF90DF90CF90BF90AF909F90E3
:105490008F907F906F905F90089580E189BD82E149
:1054A00089BD09B400FEFDCF8091D8008F7D809327
:1054B000D8008091E00082608093E0008091E0005D
:1054C00081FDFCCF0895CF92DF92EF92FF920F9370
:1054D0001F93CF93DF937C018B01EA010E943B2C49
:1054E000811133C0209731F088819981081B190BF5
:1054F000E80EF91EC12CD12C0115110529F180915E
:10550000E80085FD16C08091E8008E778093E80062
:105510000E94FB2E209741F0888199818C0D9D1D62
:105520009983888385E011C00E943B2C882321F356
:105530000CC0F70181917F018093F10001501109A6
:10554000FFEFCF1ADF0AD8CF80E0DF91CF911F9114
:105550000F91FF90EF90DF90CF9008952091380445
:10556000309139042617370748F06115710539F471
:105570002091E8002E772093E80001C0B901FC01DA
:1055800020E061157105A9F1809131048823E9F1CA
:105590008530E9F18091E80083FD35C08091E80015
:1055A00082FF06C08091E80082FF26C080E0089557
:1055B0008091E80080FFE5CF2091F3008091F20018
:1055C00090E0922B6115710551F08830910538F407
:1055D00021912093F100615071090196F3CF21E0F0
:1055E000089709F020E08091E8008E778093E8002A
:1055F000C8CF2111C9CFD6CF80913104882329F09B
:10560000853081F604C081E0089582E0089583E04A
:1056100008956115710529F42091E8002B772093F6
:10562000E8006115710541F120913104222369F1EF
:10563000253069F12091E80023FD23C02091E80086
:1056400022FFF2CFFC01CF014091F3002091F20044
:1056500030E0342B232B01F38091F1008193CF01B3
:10566000615071096115710571F7D6CF80913104D0
:10567000882359F0853059F08091E80080FFF6CFFB
:1056800002C081E0089580E0089582E0089583E0FB
:10569000089520913804309139042617370748F0CF
:1056A0006115710539F42091E8002E772093E80008
:1056B00001C0B901FC0120E061157105C1F18091C3
:1056C0003104882309F43FC0853009F43EC080913D
:1056D000E80083FD36C08091E80082FF06C080911B
:1056E000E80082FF27C080E008958091E80080FFF5
:1056F000E3CF2091F3008091F20090E0922B6115AE
:10570000710559F08830910540F424912093F100FF
:105710003196615071090196F2CF21E0089709F0A6
:1057200020E08091E8008E778093E800C5CF2111BA
:10573000C6CFD5CF80913104882329F0853079F602
:1057400004C081E0089582E0089583E00895982FD1
:10575000973058F59093E900981739F07091EC0064
:105760002091ED005091F00003C0242F762F50E0DF
:1057700021FF19C03091EB003E7F3093EB00309158
:10578000ED003D7F3093ED003091EB0031603093C0
:10579000EB007093EC002093ED005093F00020910B
:1057A000EE0027FF07C09F5FD3CF8F708093E90083
:1057B00081E0089580E008950F931F93CF93DF93C6
:1057C000062FEC0110E0101779F19881992349F127
:1057D0002C81E981FA817B81892F8F70873010F0CD
:1057E00080E023C0223010F056E001C052E028E0F3
:1057F00030E040E02E173F0720F44F5F220F331FA9
:10580000F9CF4295407F452B692F661F6627661F9B
:1058100090E4799F90011124622B0E94A72B88238A
:10582000F9F21F5F2596CFCF81E0DF91CF911F91D5
:105830000F9108958091320487FD05C08091E800A2
:1058400080FF0EC012C08091E80082FD05C08091EB
:1058500031048111F8CF08958091E8008B7708C05A
:10586000809131048111EACF08958091E8008E770C
:105870008093E80008958091E4009091E50045E66A
:105880002091EC0020FF21C02091E80020FD21C0E4
:1058900020913104222389F0253089F02091EB00FA
:1058A00025FD0FC02091E4003091E500281739074D
:1058B00039F3415041F0C901E3CF82E0089583E01C
:1058C000089581E0089584E008952091E80022FF82
:1058D000DFCF80E008950E94D72C0E94DF2CE0EEFD
:1058E000F0E0808181608083E8EDF0E080818F7757
:1058F000808319BCA7EDB0E08C918E7F8C93808162
:105900008F7E80831092300408950F931F93CF935E
:10591000DF930E94D72C0E94DF2CC8EDD0E0888155
:105920008F77888388818068888388818F7D88834A
:1059300019BC1092310410922E0410922F0400EE24
:1059400010E0F80180818B7F80838881816088836B
:1059500042E060E080E00E94A72BE1EEF0E0808171
:105960008E7F8083E2EEF0E08081816080838081A1
:1059700088608083F80180818E7F80838881806148
:105980008883DF91CF911F910F910895E8EDF0E0AA
:1059900080818F7E8083E7EDF0E08081816080836D
:1059A00084E082BF81E0809330040C94852CE8ED84
:1059B000F0E080818E7F80831092E2000895109243
:1059C000DA001092E10008951F920F920FB60F9225
:1059D00011242F933F934F935F936F937F938F93F4
:1059E0009F93AF93BF93EF93FF938091E10082FF6A
:1059F0000BC08091E20082FF07C08091E1008B7FA5
:105A00008093E1000E94131A8091DA0080FF1FC08A
:105A10008091D80080FF1BC08091DA008E7F809338
:105A2000DA008091D90080FF0DC080E189BD82E15C
:105A300089BD09B400FEFDCF81E0809331040E944E
:105A4000DB1905C019BC109231040E94DC19809149
:105A5000E10080FF19C08091E20080FF15C08091B5
:105A6000E2008E7F8093E2008091E200806180936B
:105A7000E2008091D80080628093D80019BC85E054
:105A8000809331040E943A1A8091E10084FF2EC075
:105A90008091E20084FF2AC080E189BD82E189BD56
:105AA00009B400FEFDCF8091D8008F7D8093D8008F
:105AB0008091E1008F7E8093E1008091E2008F7EF3
:105AC0008093E2008091E20081608093E200809107
:105AD0002E04811104C08091E30087FF02C084E09E
:105AE00001C081E0809331040E943D1A8091E10061
:105AF00083FF24C08091E20083FF20C08091E100F9
:105B0000877F8093E10082E08093310410922E041D
:105B10008091E1008E7F8093E1008091E2008E7F92
:105B20008093E2008091E20080618093E20042E095
:105B300060E080E00E94A72B0E94391AFF91EF914C
:105B4000BF91AF919F918F917F916F915F914F9195
:105B50003F912F910F900FBE0F901F9018951F939C
:105B6000CF93DF93CDB7DEB7AA970FB6F894DEBF19
:105B70000FBECDBFE2E3F4E08091F100819324E019
:105B8000EA33F207C9F70E94021A8091E80083FF06
:105B90001AC12091320430913304832F90E08A306F
:105BA000910508F010C1FC01E159FF4F0C94EC3352
:105BB000203881F0223809F006C1809136048F70B8
:105BC0008093E9008091EB0085FB882780F9109293
:105BD000E90004C080912F04811182E09091E800D7
:105BE000977F9093E8008093F1001092F100C5C078
:105BF000822F8D7F09F0E7C0222319F0223061F057
:105C0000E2C080913404813009F0DDC0333009F006
:105C100080E080932F0428C080913404811124C037
:105C2000209136042F7009F4CEC02093E9008091B2
:105C3000EB0080FF19C08091EB00333011F48062DB
:105C400011C080618093EB0081E090E0022E01C0E2
:105C5000880F0A94EAF78093EA001092EA00809194
:105C6000EB0088608093EB001092E9008091E800DF
:105C7000877F86C02111A7C0109134041F778091BF
:105C8000E3008078812B8093E3008091E800877F98
:105C90008093E8000E941A2C8091E80080FFFCCFDE
:105CA0008091E30080688093E300112311F083E08A
:105CB00001C082E08093310486C02058223008F071
:105CC00082C080913404909135048C3D23E092078A
:105CD00079F583E08A838AE289834FB7F894DE01FD
:105CE000139620E03EE051E2E32FF0E0509357009E
:105CF000E49120FF03C0E295EF703F5FEF708E2FBD
:105D000090E0EA3010F0C79601C0C0968D939D9345
:105D10002F5F243149F74FBF8091E800877F809340
:105D2000E8006AE270E0CE0101960E94AE2A14C03B
:105D3000AE014F5F5F4F609136040E945219009789
:105D400009F441C02091E800277F2093E800BC01BE
:105D500089819A810E94492B8091E8008B778093FA
:105D6000E80031C0203879F58091E800877F809382
:105D7000E80080912E048093F1008091E8008E77F6
:105D80008093E8000E941A2C1EC021111CC0909123
:105D900034049230C0F48091E800877F8093E8005B
:105DA00090932E040E941A2C80912E04811104C01D
:105DB0008091E30087FF02C084E001C081E080930E
:105DC00031040E94DD198091E80083FF0AC08091B0
:105DD000E800877F8093E8008091EB0080628093E9
:105DE000EB00AA960FB6F894DEBF0FBECDBFDF91D1
:105DF000CF911F910895CF93809131048823B1F002
:105E00008091E9008F709091EC0090FF02C090E8C3
:105E100001C090E0C92FC82B1092E9008091E800E2
:105E200083FD0E94AF2DCF70C093E900CF910895FC
:105E300040E060E087EE90E30E94613141E060E085
:105E40008BEE90E30E94613141E060E089E496E1ED
:105E50000E94613140E060E08BE499E10E94613191
:105E600041E060E083E29CE10E94613140E060E05B
:105E700084EB96E10E94613140E061E085E398E2C5
:105E80000C9461316091FE0570E040E081E00E9479
:105E9000431B6091FC057091FD056115710541F092
:105EA00041E082E00E94431B1092FD051092FC0528
:105EB0000E942E1B0E9453170E94EF300E94AF32A7
:105EC0000E9475270E94BC2F0E94FC210E949216FE
:105ED0000E94AF140E94B9170E945A310E94F11A11
:105EE00081E080931D040E94E33010921D0481E044
:105EF0000E94C62740E061E08FEF9AE10E94613185
:105F00000E94182F0C94C62C0E94A7318091260263
:105F10008823E1F30C94C0310E946B2CF8942FEF8E
:105F200087EA91E6215080409040E1F700C00000F0
:105F300080912602823031F48DEA9EED9093000626
:105F40008093FF0580912602882361F02CE088E190
:105F500090E00FB6F894A895809360000FBE209350
:105F60006000FFCF08950E94422F0E94842F0E945C
:105F70008C2F80E090E00895DF92EF92FF920F93D4
:105F80001F93CF93DF93CCEFDDE10EE414E0DD242B
:105F9000D394FE0184910E94B520F8013297918339
:105FA00080837E01FFEFEF1AFF0AF7018491FD2D38
:105FB00001C0FF0F8A95EAF78F2FF8018083F70160
:105FC0006491FE0184910E94C720F7016491FE0153
:105FD00084910E94F02022960D5F1F4FFEE1CE318A
:105FE000DF07B9F6CEE1DEE10CE314E0DD24D39463
:105FF000FE0184910E94BE20F80132979183808334
:106000007E01FFEFEF1AFF0AF7018491FD2D01C019
:10601000FF0F8A95EAF78F2FF8018083F7016491CB
:10602000FE0184910E94DB20F7016491FE018491BE
:106030000E94F02022960D5F1F4FFEE1CA32DF075B
:10604000B9F6DF91CF911F910F91FF90EF90DF9004
:106050000895CF93DF93962F642F21E1929FE00163
:106060001124C40FD11DCC0FDD1FC158DB4F488157
:106070005981882311F157FF0FC02091EA0130E0C8
:106080003195219531092417350794F1892F0E9404
:106090001C2682E090E022C02091E6013091E701C9
:1060A000421753079CF0892F0E94DA262091DA01CB
:1060B00088819981821B910911C0141615068CF4F0
:1060C0002091EA0130E0421753071CF44E5F5F4F06
:1060D00011C0892F0E9499268EEF9FEF99838883A4
:1060E0000BC08091DF019091E0018417950724F4A3
:1060F0004250510959834883DF91CF910895AF925F
:10610000BF92CF92DF92EF92FF920F931F93CF93A4
:10611000DF93D62EB82E52E0C52EBD140CF048C029
:10612000CB2DDD27C7FDD095FE01EE0FFF1FEC0F35
:10613000FD1FE45BFB4FA081B1819C918281809522
:1061400089238C938C2D8A95F1F70CE314E0A12C14
:106150007E01EE0CFF1CF80132970190F081E02DDA
:106160009081F8018081982381E009F080E090918E
